{
  "_format": "hh3-artifact-1",
  "contractName": "MemoStorage",
  "sourceName": "contracts/MemoStorage.sol",
  "abi": [
    {
      "anonymous": false,
      "inputs": [
        {
          "indexed": true,
          "internalType": "address",
          "name": "from",
          "type": "address"
        },
        {
          "indexed": true,
          "internalType": "address",
          "name": "to",
          "type": "address"
        },
        {
          "indexed": false,
          "internalType": "uint256",
          "name": "amount",
          "type": "uint256"
        },
        {
          "indexed": false,
          "internalType": "string",
          "name": "memo",
          "type": "string"
        },
        {
          "indexed": false,
          "internalType": "uint256",
          "name": "timestamp",
          "type": "uint256"
        }
      ],
      "name": "MemoStored",
      "type": "event"
    },
    {
      "inputs": [
        {
          "internalType": "address",
          "name": "usdtToken",
          "type": "address"
        },
        {
          "internalType": "address",
          "name": "to",
          "type": "address"
        },
        {
          "internalType": "uint256",
          "name": "amount",
          "type": "uint256"
        },
        {
          "internalType": "string",
          "name": "memo",
          "type": "string"
        }
      ],
      "name": "sendUSDTWithMemo",
      "outputs": [],
      "stateMutability": "nonpayable",
      "type": "function"
    },
    {
      "inputs": [
        {
          "internalType": "address payable",
          "name": "to",
          "type": "address"
        },
        {
          "internalType": "string",
          "name": "memo",
          "type": "string"
        }
      ],
      "name": "sendWithMemo",
      "outputs": [],
      "stateMutability": "payable",
      "type": "function"
    }
  ],
  "bytecode": "0x6080604052348015600e575f5ffd5b506109fb8061001c5f395ff3fe608060405260043610610028575f3560e01c8063037178201461002c578063fc875c2214610048575b5f5ffd5b610046600480360381019061004191906104e2565b610070565b005b348015610053575f5ffd5b5061006e600480360381019061006991906105ad565b6101f7565b005b5f73ffffffffffffffffffffffffffffffffffffffff168373ffffffffffffffffffffffffffffffffffffffff16036100de576040517f08c379a00000000000000000000000000000000000000000000000000000000081526004016100d59061068b565b60405180910390fd5b5f8373ffffffffffffffffffffffffffffffffffffffff1634604051610103906106d6565b5f6040518083038185875af1925050503d805f811461013d576040519150601f19603f3d011682016040523d82523d5f602084013e610142565b606091505b5050905080610186576040517f08c379a000000000000000000000000000000000000000000000000000000000815260040161017d90610734565b60405180910390fd5b8373ffffffffffffffffffffffffffffffffffffffff163373ffffffffffffffffffffffffffffffffffffffff167f82c492de4c71cf743be7123c0e09a073892dbc805561f6dd56fb0cf3fd8c04ec348686426040516101e994939291906107ab565b60405180910390a350505050565b5f73ffffffffffffffffffffffffffffffffffffffff168473ffffffffffffffffffffffffffffffffffffffff1603610265576040517f08c379a000000000000000000000000000000000000000000000000000000000815260040161025c9061068b565b60405180910390fd5b5f83116102a7576040517f08c379a000000000000000000000000000000000000000000000000000000000815260040161029e90610833565b60405180910390fd5b5f82829050116102ec576040517f08c379a00000000000000000000000000000000000000000000000000000000081526004016102e39061089b565b60405180910390fd5b5f8573ffffffffffffffffffffffffffffffffffffffff166323b872dd3387876040518463ffffffff1660e01b815260040161032a939291906108c8565b6020604051808303815f875af1158015610346573d5f5f3e3d5ffd5b505050506040513d601f19601f8201168201806040525081019061036a9190610932565b9050806103ac576040517f08c379a00000000000000000000000000000000000000000000000000000000081526004016103a3906109a7565b60405180910390fd5b8473ffffffffffffffffffffffffffffffffffffffff163373ffffffffffffffffffffffffffffffffffffffff167f82c492de4c71cf743be7123c0e09a073892dbc805561f6dd56fb0cf3fd8c04ec8686864260405161040f94939291906107ab565b60405180910390a3505050505050565b5f5ffd5b5f5ffd5b5f73ffffffffffffffffffffffffffffffffffffffff82169050919050565b5f61045082610427565b9050919050565b61046081610446565b811461046a575f5ffd5b50565b5f8135905061047b81610457565b92915050565b5f5ffd5b5f5ffd5b5f5ffd5b5f5f83601f8401126104a2576104a1610481565b5b8235905067ffffffffffffffff8111156104bf576104be610485565b5b6020830191508360018202830111156104db576104da610489565b5b9250929050565b5f5f5f604084860312156104f9576104f861041f565b5b5f6105068682870161046d565b935050602084013567ffffffffffffffff81111561052757610526610423565b5b6105338682870161048d565b92509250509250925092565b5f61054982610427565b9050919050565b6105598161053f565b8114610563575f5ffd5b50565b5f8135905061057481610550565b92915050565b5f819050919050565b61058c8161057a565b8114610596575f5ffd5b50565b5f813590506105a781610583565b92915050565b5f5f5f5f5f608086880312156105c6576105c561041f565b5b5f6105d388828901610566565b95505060206105e488828901610566565b94505060406105f588828901610599565b935050606086013567ffffffffffffffff81111561061657610615610423565b5b6106228882890161048d565b92509250509295509295909350565b5f82825260208201905092915050565b7f496e76616c696420726563697069656e740000000000000000000000000000005f82015250565b5f610675601183610631565b915061068082610641565b602082019050919050565b5f6020820190508181035f8301526106a281610669565b9050919050565b5f81905092915050565b50565b5f6106c15f836106a9565b91506106cc826106b3565b5f82019050919050565b5f6106e0826106b6565b9150819050919050565b7f5472616e73666572206661696c656400000000000000000000000000000000005f82015250565b5f61071e600f83610631565b9150610729826106ea565b602082019050919050565b5f6020820190508181035f83015261074b81610712565b9050919050565b61075b8161057a565b82525050565b828183375f83830152505050565b5f601f19601f8301169050919050565b5f61078a8385610631565b9350610797838584610761565b6107a08361076f565b840190509392505050565b5f6060820190506107be5f830187610752565b81810360208301526107d181858761077f565b90506107e06040830184610752565b95945050505050565b7f416d6f756e74206d7573742062652067726561746572207468616e20300000005f82015250565b5f61081d601d83610631565b9150610828826107e9565b602082019050919050565b5f6020820190508181035f83015261084a81610811565b9050919050565b7f4d656d6f2063616e6e6f7420626520656d7074790000000000000000000000005f82015250565b5f610885601483610631565b915061089082610851565b602082019050919050565b5f6020820190508181035f8301526108b281610879565b9050919050565b6108c28161053f565b82525050565b5f6060820190506108db5f8301866108b9565b6108e860208301856108b9565b6108f56040830184610752565b949350505050565b5f8115159050919050565b610911816108fd565b811461091b575f5ffd5b50565b5f8151905061092c81610908565b92915050565b5f602082840312156109475761094661041f565b5b5f6109548482850161091e565b91505092915050565b7f55534454207472616e73666572206661696c65640000000000000000000000005f82015250565b5f610991601483610631565b915061099c8261095d565b602082019050919050565b5f6020820190508181035f8301526109be81610985565b905091905056fea2646970667358221220adbdbf144740af5211a5ad7919e775cae66f0cc6d328c912a3a85715d4c671c264736f6c634300081c0033",
  "linkReferences": {},
  "deployedLinkReferences": {},
  "immutableReferences": {},
  "inputSourceName": "project/contracts/MemoStorage.sol",
  "buildInfoId": "solc-0_8_28-1062705796f3ad0c658cec9c570e67c01dc01924"
}